:020000040800F2
:1000000000000820DD0300082D0400082D0400086E
:100010002D0400082D0400082D0400080000000035
:100020000000000000000000000000002D04000897
:100030002D040008000000002D0400082D04000815
:100040002D0400082D0400082D0400082D040008CC
:100050002D0400082D0400082D0400082D040008BC
:100060002D0400082D0400082D0400082D040008AC
:100070002D0400082D0400082D0400082D0400089C
:100080002D0400082D0400082D0400082D0400088C
:100090002D0400082D0400082D0400082D0400087C
:1000A0002D0400082D0400082D0400082D0400086C
:1000B0002D0400082D0400082D0400082D0400085C
:1000C0002D0400082D0400082D0400082D0400084C
:1000D0002D0400082D0400082D0400082D0400083C
:1000E0002D0400082D0400082D0400082D0400082C
:1000F0002D0400082D0400082D0400082D0400081C
:100100002D0400082D0400082D0400082D0400080B
:100110002D0400082D0400082D0400082D040008FB
:100120002D0400082D0400082D0400082D040008EB
:100130002D0400082D0400082D0400082D040008DB
:100140002D0400082D0400082D0400082D040008CB
:100150002D0400082D0400082D0400082D040008BB
:100160002D0400082D0400082D0400082D040008AB
:100170002D0400082D0400082D04000800000000D4
:100180002D0400082D0400082D0400082D0400088B
:100190002D0400082D0400082D0400082D0400087B
:1001A0002D0400082D0400082D0400082D0400086B
:1001B0002D0400082D0400082D0400082D0400085B
:1001C0002D0400082D040008000000002D04000884
:1001D0002D0400082D0400082D0400082D0400083B
:1001E0002D0400082D0400082D0400082D0400082B
:0801F0002D0400082D04000895
:1001F800704700BF034AD2F8883043F47003C2F84E
:100208008830704700ED00E0164A936803F00C034D
:10021800042B25D0082B0AD0134B124A1348926896
:100228001349C2F30312825CD3400B6070475368D2
:1002380051685B02536801F03F0148BF0D48C3F3A2
:10024800881358BF0848B0FBF1F202FB03F3054AD4
:100258005268C2F3014201325200B3FBF2F3DCE709
:10026800044BDAE7003802400024F40030040008A8
:100278000000002040787D01700400080000002084
:1002880004000020040000200400002070B50F4B7B
:100298000F4DAB42A3EB050607D0B610002455F866
:1002A800043B01349847A642F9D8FFF7A1FF094D4E
:1002B800094B5E1BAB424FEAA60606D0002455F850
:1002C800043B01349847A642F9D870BD7004000871
:1002D800700400087004000870040008374B1A6B9B
:1002E80042F008021A63BFF34F8F354A196B116841
:1002F80021F4403141F400311160116821F44021AA
:1003080041F400211160516A21F00F0141F0070109
:100318005162516A21F0F00141F0700151621A6C8A
:1003280042F480221A64BFF34F8F1A6CD3F89020DE
:1003380022F03002C3F89020D3F8902042F0200237
:10034800C3F89020BFF34F8F1E4A00218A20D3F8AC
:100358009030116051609160D060136843F00803D9
:100368001360136843F001031360D3699902FCD545
:10037800154B00BF1A46013B002AFAD11149134810
:1003880042F20F7300BF1A46013B002AFAD1CB692B
:100398001B06FCD510F8012B63238A6200BF1A469E
:1003A800013B002AFAD10378002BE9D1084B00BFA2
:1003B8001A46013B002AFAD1E1E700BF00380240A3
:1003C800000C0240004800401FA107004804000834
:1003D8003F4B4C00DFF834D0FFF70CFF0C480D49B9
:1003E8000D4A002302E0D458C4500433C4188C4288
:1003F800F9D30A4A0A4C002301E013600432A242EE
:10040800FBD3FFF743FFFFF769FF704700000820A1
:1004180000000020040000207004000804000020F0
:0804280004000020FEE70000C3
:100430000000000000000000010203040607080994
:10044000000000000102030455534152543320615F
:10045000742031364D487A20485349202D203131BF
:10046000353230302062617564210D0A00000000D1
:040470000024F40070
:04000005080003DD0F
:00000001FF
